:100000000C9446000C945D000C945D000C945D0013
:100010000C945D000C945D000C945D000C945D00EC
:100020000C945D000C945D000C945D000C945D00DC
:100030000C945D000C945D000C945D000C945D00CC
:100040000C945D000C945D000C945D000C945D00BC
:100050000C945D000C945D000C945D000C945D00AC
:100060000C945D000C945D000C945D000C945D009C
:100070000C945D000C945D000C945D000C945D008C
:100080000C945D000C945D000C945D0011241FBE67
:10009000CFEFD0E4DEBFCDBF11E0A0E0B1E0ECE6F1
:1000A000F1E000E00BBF02C007900D92AE30B10747
:1000B000D9F70E9476000C94B4000C940000CF9302
:1000C000C82F8A3019F48DE00E945F008091C00033
:1000D00085FFFCCFC093C60080E090E0CF910895EB
:1000E000EAE7F0E08081806E8083089511B88FEF99
:1000F00082B984B915B88AB91BB80E947000809182
:10010000780090917900803E910518F08FEF85B9C5
:10011000F6CF893C910518F08FE785B9F0CF8B3A7F
:10012000910518F08FE385B9EACF8739910518F06A
:100130008FE185B9E4CF8C38910518F08FE085B94F
:10014000DECF8037910518F087E085B9D8CF8435A8
:10015000910518F083E085B9D2CFC89718F081E0F7
:0C01600085B9CDCF15B8CBCFF894FFCFF8
:0E016C0000000002000000005F000000000024
:00000001FF
